{
  "contractName": "Voting",
  "abi": [
    {
      "inputs": [],
      "stateMutability": "nonpayable",
      "type": "constructor"
    },
    {
      "anonymous": false,
      "inputs": [
        {
          "indexed": false,
          "internalType": "address",
          "name": "voted_by",
          "type": "address"
        },
        {
          "indexed": false,
          "internalType": "string",
          "name": "candidate_name",
          "type": "string"
        }
      ],
      "name": "voted",
      "type": "event"
    },
    {
      "inputs": [],
      "name": "admin",
      "outputs": [
        {
          "internalType": "address",
          "name": "",
          "type": "address"
        }
      ],
      "stateMutability": "view",
      "type": "function",
      "constant": true
    },
    {
      "inputs": [],
      "name": "candidate_count",
      "outputs": [
        {
          "internalType": "uint256",
          "name": "",
          "type": "uint256"
        }
      ],
      "stateMutability": "view",
      "type": "function",
      "constant": true
    },
    {
      "inputs": [
        {
          "internalType": "address",
          "name": "",
          "type": "address"
        }
      ],
      "name": "voters",
      "outputs": [
        {
          "internalType": "uint256",
          "name": "voter_id",
          "type": "uint256"
        },
        {
          "internalType": "bool",
          "name": "voted",
          "type": "bool"
        }
      ],
      "stateMutability": "view",
      "type": "function",
      "constant": true
    },
    {
      "inputs": [
        {
          "internalType": "address",
          "name": "new_admin",
          "type": "address"
        }
      ],
      "name": "change_admin",
      "outputs": [],
      "stateMutability": "nonpayable",
      "type": "function"
    },
    {
      "inputs": [
        {
          "internalType": "uint256",
          "name": "candidate_id",
          "type": "uint256"
        }
      ],
      "name": "vote",
      "outputs": [],
      "stateMutability": "nonpayable",
      "type": "function"
    },
    {
      "inputs": [
        {
          "internalType": "string",
          "name": "n_name",
          "type": "string"
        },
        {
          "internalType": "string",
          "name": "p_party",
          "type": "string"
        }
      ],
      "name": "insert_candidate",
      "outputs": [],
      "stateMutability": "nonpayable",
      "type": "function"
    },
    {
      "inputs": [
        {
          "internalType": "uint256",
          "name": "c_id",
          "type": "uint256"
        }
      ],
      "name": "remove_candidate",
      "outputs": [],
      "stateMutability": "nonpayable",
      "type": "function"
    },
    {
      "inputs": [
        {
          "internalType": "uint256",
          "name": "c_id",
          "type": "uint256"
        }
      ],
      "name": "initialize_voter",
      "outputs": [],
      "stateMutability": "nonpayable",
      "type": "function"
    },
    {
      "inputs": [
        {
          "internalType": "uint256",
          "name": "c_id",
          "type": "uint256"
        }
      ],
      "name": "get_candidate",
      "outputs": [
        {
          "components": [
            {
              "internalType": "string",
              "name": "name",
              "type": "string"
            },
            {
              "internalType": "string",
              "name": "party",
              "type": "string"
            },
            {
              "internalType": "uint256",
              "name": "vote_count",
              "type": "uint256"
            }
          ],
          "internalType": "struct Voting.Candidate",
          "name": "",
          "type": "tuple"
        }
      ],
      "stateMutability": "view",
      "type": "function",
      "constant": true
    },
    {
      "inputs": [],
      "name": "has_voted",
      "outputs": [
        {
          "internalType": "bool",
          "name": "",
          "type": "bool"
        }
      ],
      "stateMutability": "view",
      "type": "function",
      "constant": true
    },
    {
      "inputs": [],
      "name": "has_vid",
      "outputs": [
        {
          "internalType": "bool",
          "name": "",
          "type": "bool"
        }
      ],
      "stateMutability": "view",
      "type": "function",
      "constant": true
    }
  ],
  "bytecode": "0x608060405234801561001057600080fd5b50336000806101000a81548173ffffffffffffffffffffffffffffffffffffffff021916908373ffffffffffffffffffffffffffffffffffffffff16021790555060006001819055506119ea806100686000396000f3fe608060405234801561001057600080fd5b50600436106100a95760003560e01c806362a44fe91161007157806362a44fe91461013e5780638d78048d1461015c5780638e8913f91461017857806395fc395d14610194578063a3ec138d146101c4578063f851a440146101f5576100a9565b80630121b93f146100ae578063017dcc49146100ca578063158686b5146100e857806348f45703146101045780634b1c4c2914610120575b600080fd5b6100c860048036038101906100c39190610b2c565b610213565b005b6100d26103ce565b6040516100df9190610b74565b60405180910390f35b61010260048036038101906100fd9190610bed565b61041a565b005b61011e60048036038101906101199190610d60565b6104eb565b005b61012861068d565b6040516101359190610de7565b60405180910390f35b610146610693565b6040516101539190610b74565b60405180910390f35b61017660048036038101906101719190610b2c565b6106ea565b005b610192600480360381019061018d9190610b2c565b610781565b005b6101ae60048036038101906101a99190610b2c565b6108cd565b6040516101bb9190610ef0565b60405180910390f35b6101de60048036038101906101d99190610bed565b610a6c565b6040516101ec929190610f12565b60405180910390f35b6101fd610a9d565b60405161020a9190610f4a565b60405180910390f35b6000600260003373ffffffffffffffffffffffffffffffffffffffff1673ffffffffffffffffffffffffffffffffffffffff1681526020019081526020016000209050600081600001540361029d576040517f08c379a000000000000000000000000000000000000000000000000000000000815260040161029490610fe8565b60405180910390fd5b8060010160009054906101000a900460ff16156102ef576040517f08c379a00000000000000000000000000000000000000000000000000000000081526004016102e690611054565b60405180910390fd5b6001548210610333576040517f08c379a000000000000000000000000000000000000000000000000000000000815260040161032a906110c0565b60405180910390fd5b60018160010160006101000a81548160ff0219169083151502179055506003600083815260200190815260200160002060020160008154809291906103779061110f565b91905055507f0a7e9456e3ea7078f0983e8892fb05d4e30c3a43391913c3b461a0a16d9fc8ac33600360008581526020019081526020016000206000016040516103c2929190611250565b60405180910390a15050565b600080600260003373ffffffffffffffffffffffffffffffffffffffff1673ffffffffffffffffffffffffffffffffffffffff1681526020019081526020016000206000015411905090565b60008054906101000a900473ffffffffffffffffffffffffffffffffffffffff1673ffffffffffffffffffffffffffffffffffffffff163373ffffffffffffffffffffffffffffffffffffffff16146104a8576040517f08c379a000000000000000000000000000000000000000000000000000000000815260040161049f906112cc565b60405180910390fd5b806000806101000a81548173ffffffffffffffffffffffffffffffffffffffff021916908373ffffffffffffffffffffffffffffffffffffffff16021790555050565b600082511161052f576040517f08c379a000000000000000000000000000000000000000000000000000000000815260040161052690611338565b60405180910390fd5b6000815111610573576040517f08c379a000000000000000000000000000000000000000000000000000000000815260040161056a906113a4565b60405180910390fd5b60008054906101000a900473ffffffffffffffffffffffffffffffffffffffff1673ffffffffffffffffffffffffffffffffffffffff163373ffffffffffffffffffffffffffffffffffffffff1614610601576040517f08c379a00000000000000000000000000000000000000000000000000000000081526004016105f890611410565b60405180910390fd5b600060405180606001604052808481526020018381526020016000815250905080600360006001548152602001908152602001600020600082015181600001908161064c91906115c7565b50602082015181600101908161066291906115c7565b5060408201518160020155905050600160008154809291906106839061110f565b9190505550505050565b60015481565b6000600260003373ffffffffffffffffffffffffffffffffffffffff1673ffffffffffffffffffffffffffffffffffffffff16815260200190815260200160002060010160009054906101000a900460ff16905090565b6000600260003373ffffffffffffffffffffffffffffffffffffffff1673ffffffffffffffffffffffffffffffffffffffff16815260200190815260200160002090506000816000015414610774576040517f08c379a000000000000000000000000000000000000000000000000000000000815260040161076b9061170b565b60405180910390fd5b8181600001819055505050565b60008054906101000a900473ffffffffffffffffffffffffffffffffffffffff1673ffffffffffffffffffffffffffffffffffffffff163373ffffffffffffffffffffffffffffffffffffffff161461080f576040517f08c379a000000000000000000000000000000000000000000000000000000000815260040161080690611777565b60405180910390fd5b6001548110156108ca5760008190505b6001805461082d9190611797565b8110156108b0576003600060018361084591906117cb565b8152602001908152602001600020600360008381526020019081526020016000206000820181600001908161087a9190611837565b506001820181600101908161088f9190611837565b506002820154816002015590505080806108a89061110f565b91505061081f565b50600160008154809291906108c49061191f565b91905055505b50565b6108d5610ac1565b6001548210610919576040517f08c379a000000000000000000000000000000000000000000000000000000000815260040161091090611994565b60405180910390fd5b6003600083815260200190815260200160002060405180606001604052908160008201805461094790611186565b80601f016020809104026020016040519081016040528092919081815260200182805461097390611186565b80156109c05780601f10610995576101008083540402835291602001916109c0565b820191906000526020600020905b8154815290600101906020018083116109a357829003601f168201915b505050505081526020016001820180546109d990611186565b80601f0160208091040260200160405190810160405280929190818152602001828054610a0590611186565b8015610a525780601f10610a2757610100808354040283529160200191610a52565b820191906000526020600020905b815481529060010190602001808311610a3557829003601f168201915b505050505081526020016002820154815250509050919050565b60026020528060005260406000206000915090508060000154908060010160009054906101000a900460ff16905082565b60008054906101000a900473ffffffffffffffffffffffffffffffffffffffff1681565b60405180606001604052806060815260200160608152602001600081525090565b6000604051905090565b600080fd5b600080fd5b6000819050919050565b610b0981610af6565b8114610b1457600080fd5b50565b600081359050610b2681610b00565b92915050565b600060208284031215610b4257610b41610aec565b5b6000610b5084828501610b17565b91505092915050565b60008115159050919050565b610b6e81610b59565b82525050565b6000602082019050610b896000830184610b65565b92915050565b600073ffffffffffffffffffffffffffffffffffffffff82169050919050565b6000610bba82610b8f565b9050919050565b610bca81610baf565b8114610bd557600080fd5b50565b600081359050610be781610bc1565b92915050565b600060208284031215610c0357610c02610aec565b5b6000610c1184828501610bd8565b91505092915050565b600080fd5b600080fd5b6000601f19601f8301169050919050565b7f4e487b7100000000000000000000000000000000000000000000000000000000600052604160045260246000fd5b610c6d82610c24565b810181811067ffffffffffffffff82111715610c8c57610c8b610c35565b5b80604052505050565b6000610c9f610ae2565b9050610cab8282610c64565b919050565b600067ffffffffffffffff821115610ccb57610cca610c35565b5b610cd482610c24565b9050602081019050919050565b82818337600083830152505050565b6000610d03610cfe84610cb0565b610c95565b905082815260208101848484011115610d1f57610d1e610c1f565b5b610d2a848285610ce1565b509392505050565b600082601f830112610d4757610d46610c1a565b5b8135610d57848260208601610cf0565b91505092915050565b60008060408385031215610d7757610d76610aec565b5b600083013567ffffffffffffffff811115610d9557610d94610af1565b5b610da185828601610d32565b925050602083013567ffffffffffffffff811115610dc257610dc1610af1565b5b610dce85828601610d32565b9150509250929050565b610de181610af6565b82525050565b6000602082019050610dfc6000830184610dd8565b92915050565b600081519050919050565b600082825260208201905092915050565b60005b83811015610e3c578082015181840152602081019050610e21565b83811115610e4b576000848401525b50505050565b6000610e5c82610e02565b610e668185610e0d565b9350610e76818560208601610e1e565b610e7f81610c24565b840191505092915050565b610e9381610af6565b82525050565b60006060830160008301518482036000860152610eb68282610e51565b91505060208301518482036020860152610ed08282610e51565b9150506040830151610ee56040860182610e8a565b508091505092915050565b60006020820190508181036000830152610f0a8184610e99565b905092915050565b6000604082019050610f276000830185610dd8565b610f346020830184610b65565b9392505050565b610f4481610baf565b82525050565b6000602082019050610f5f6000830184610f3b565b92915050565b600082825260208201905092915050565b7f557365722073686f756c642066697273742070726f766964652074686569722060008201527f636974697a656e73686970206e756d6265720000000000000000000000000000602082015250565b6000610fd2603283610f65565b9150610fdd82610f76565b604082019050919050565b6000602082019050818103600083015261100181610fc5565b9050919050565b7f416c726561647920766f74656400000000000000000000000000000000000000600082015250565b600061103e600d83610f65565b915061104982611008565b602082019050919050565b6000602082019050818103600083015261106d81611031565b9050919050565b7f43616e64696461746520532e4e2e20646f65736e6f7420657869737473000000600082015250565b60006110aa601d83610f65565b91506110b582611074565b602082019050919050565b600060208201905081810360008301526110d98161109d565b9050919050565b7f4e487b7100000000000000000000000000000000000000000000000000000000600052601160045260246000fd5b600061111a82610af6565b91507fffffffffffffffffffffffffffffffffffffffffffffffffffffffffffffffff820361114c5761114b6110e0565b5b600182019050919050565b7f4e487b7100000000000000000000000000000000000000000000000000000000600052602260045260246000fd5b6000600282049050600182168061119e57607f821691505b6020821081036111b1576111b0611157565b5b50919050565b60008190508160005260206000209050919050565b600081546111d981611186565b6111e38186610f65565b945060018216600081146111fe576001811461121457611247565b60ff198316865281151560200286019350611247565b61121d856111b7565b60005b8381101561123f57815481890152600182019150602081019050611220565b808801955050505b50505092915050565b60006040820190506112656000830185610f3b565b818103602083015261127781846111cc565b90509392505050565b7f4f6e6c79206f6c642061646d696e2063616e206368616e67652061646d696e2e600082015250565b60006112b6602083610f65565b91506112c182611280565b602082019050919050565b600060208201905081810360008301526112e5816112a9565b9050919050565b7f496e73657274206e616d652070726f7065726c79000000000000000000000000600082015250565b6000611322601483610f65565b915061132d826112ec565b602082019050919050565b6000602082019050818103600083015261135181611315565b9050919050565b7f496e736572742070617274792070726f7065726c790000000000000000000000600082015250565b600061138e601583610f65565b915061139982611358565b602082019050919050565b600060208201905081810360008301526113bd81611381565b9050919050565b7f4f6e6c792061646d696e2063616e206164642063616e64696461746573000000600082015250565b60006113fa601d83610f65565b9150611405826113c4565b602082019050919050565b60006020820190508181036000830152611429816113ed565b9050919050565b60006020601f8301049050919050565b600082821b905092915050565b60006008830261147d7fffffffffffffffffffffffffffffffffffffffffffffffffffffffffffffffff82611440565b6114878683611440565b95508019841693508086168417925050509392505050565b6000819050919050565b60006114c46114bf6114ba84610af6565b61149f565b610af6565b9050919050565b6000819050919050565b6114de836114a9565b6114f26114ea826114cb565b84845461144d565b825550505050565b600090565b6115076114fa565b6115128184846114d5565b505050565b5b818110156115365761152b6000826114ff565b600181019050611518565b5050565b601f82111561157b5761154c816111b7565b61155584611430565b81016020851015611564578190505b61157861157085611430565b830182611517565b50505b505050565b600082821c905092915050565b600061159e60001984600802611580565b1980831691505092915050565b60006115b7838361158d565b9150826002028217905092915050565b6115d082610e02565b67ffffffffffffffff8111156115e9576115e8610c35565b5b6115f38254611186565b6115fe82828561153a565b600060209050601f831160018114611631576000841561161f578287015190505b61162985826115ab565b865550611691565b601f19841661163f866111b7565b60005b8281101561166757848901518255600182019150602085019450602081019050611642565b868310156116845784890151611680601f89168261158d565b8355505b6001600288020188555050505b505050505050565b7f436974697a656e7368697020696420616c726561647920696e697469616c697a60008201527f6564000000000000000000000000000000000000000000000000000000000000602082015250565b60006116f5602283610f65565b915061170082611699565b604082019050919050565b60006020820190508181036000830152611724816116e8565b9050919050565b7f4f6e6c792061646d696e2063616e2072656d6f76652063616e64696461746573600082015250565b6000611761602083610f65565b915061176c8261172b565b602082019050919050565b6000602082019050818103600083015261179081611754565b9050919050565b60006117a282610af6565b91506117ad83610af6565b9250828210156117c0576117bf6110e0565b5b828203905092915050565b60006117d682610af6565b91506117e183610af6565b9250827fffffffffffffffffffffffffffffffffffffffffffffffffffffffffffffffff03821115611816576118156110e0565b5b828201905092915050565b60008154905061183081611186565b9050919050565b81810361184557505061191d565b61184e82611821565b67ffffffffffffffff81111561186757611866610c35565b5b6118718254611186565b61187c82828561153a565b6000601f8311600181146118ab5760008415611899578287015490505b6118a385826115ab565b865550611916565b601f1984166118b9876111b7565b96506118c4866111b7565b60005b828110156118ec578489015482556001820191506001850194506020810190506118c7565b868310156119095784890154611905601f89168261158d565b8355505b6001600288020188555050505b5050505050505b565b600061192a82610af6565b91506000820361193d5761193c6110e0565b5b600182039050919050565b7f43616e646964617465206e6f7420417661696c61626c65000000000000000000600082015250565b600061197e601783610f65565b915061198982611948565b602082019050919050565b600060208201905081810360008301526119ad81611971565b905091905056fea264697066735822122039d589cdb7f27d4f18151096e5c08dbbb928ec2a690c32b837f51ffad731774664736f6c634300080f0033",
  "immutableReferences": {},
  "source": "pragma solidity >=0.4.22 <0.9.0;\r\n\r\ncontract Voting {\r\n\r\n    struct Voter{\r\n        uint256 voter_id;\r\n        bool voted;\r\n    }\r\n\r\n    struct Candidate {\r\n        string name;\r\n        string party;\r\n        uint256 vote_count;\r\n    }\r\n\r\n    address public admin;\r\n\r\n    uint256 public candidate_count;\r\n    // Candidate[] candidates;\r\n    event voted(address voted_by, string candidate_name);\r\n\r\n    mapping(address => Voter) public voters;\r\n    mapping(uint256 => Candidate) candidates;\r\n\r\n    constructor() {\r\n        admin = msg.sender;\r\n        candidate_count = 0;\r\n    }\r\n\r\n    function change_admin(address new_admin) public {\r\n        require(msg.sender == admin, \"Only old admin can change admin.\");\r\n        admin = new_admin;\r\n    }\r\n\r\n    function vote(uint256 candidate_id) public {\r\n        Voter storage vote_sender = voters[msg.sender];\r\n        require(vote_sender.voter_id != 0, \"User should first provide their citizenship number\");\r\n        require(!vote_sender.voted, \"Already voted\");\r\n        require(candidate_id < candidate_count, \"Candidate S.N. doesnot exists\");\r\n        vote_sender.voted = true;\r\n        candidates[candidate_id].vote_count++;\r\n        emit voted(msg.sender, candidates[candidate_id].name);\r\n    }\r\n\r\n    function insert_candidate(string memory n_name, string memory p_party) public {\r\n        require(bytes(n_name).length > 0, \"Insert name properly\");\r\n        require(bytes(p_party).length > 0, \"Insert party properly\");\r\n        require(msg.sender == admin, \"Only admin can add candidates\");\r\n\r\n        Candidate memory candidate = Candidate({\r\n            name: n_name,\r\n            party: p_party,\r\n            vote_count: 0\r\n        });\r\n\r\n        candidates[candidate_count] = candidate;\r\n        candidate_count++;\r\n    }\r\n\r\n    function remove_candidate(uint256 c_id) public {\r\n        require(msg.sender == admin, \"Only admin can remove candidates\");\r\n        if(c_id < candidate_count) {\r\n            for (uint256 i = c_id; i < candidate_count - 1; i++) {\r\n                candidates[i] = candidates[i+1];\r\n            }\r\n            candidate_count--;\r\n        } \r\n    }\r\n\r\n    function initialize_voter(uint256 c_id) public {\r\n        Voter storage vote_sender = voters[msg.sender];\r\n        require(vote_sender.voter_id == 0, \"Citizenship id already initialized\");\r\n        vote_sender.voter_id = c_id;\r\n    }\r\n\r\n    function get_candidate(uint256 c_id) public view returns (Candidate memory) {\r\n        require(c_id < candidate_count, \"Candidate not Available\");\r\n        return candidates[c_id];\r\n    }\r\n\r\n    function has_voted() public view returns (bool) {\r\n        return voters[msg.sender].voted;\r\n    }\r\n\r\n    function has_vid() public view returns (bool) {\r\n        return voters[msg.sender].voter_id > 0;\r\n    }\r\n\r\n}",
  "sourcePath": "C:\\Users\\DI WA SH\\Documents\\voting-DAPP\\back\\contracts\\Voting.sol",
  "compiler": {
    "name": "solc",
    "version": "0.8.15+commit.e14f2714.Emscripten.clang"
  },
  "schemaVersion": "3.4.8",
  "updatedAt": "2022-08-10T08:46:30.261Z",
  "networkType": "ethereum",
  "devdoc": {
    "kind": "dev",
    "methods": {},
    "version": 1
  },
  "userdoc": {
    "kind": "user",
    "methods": {},
    "version": 1
  }
}