{
  "contractName": "Voting",
  "abi": [
    {
      "inputs": [],
      "stateMutability": "nonpayable",
      "type": "constructor"
    },
    {
      "anonymous": false,
      "inputs": [
        {
          "indexed": false,
          "internalType": "address",
          "name": "voted_by",
          "type": "address"
        },
        {
          "indexed": false,
          "internalType": "string",
          "name": "candidate_name",
          "type": "string"
        }
      ],
      "name": "voted",
      "type": "event"
    },
    {
      "inputs": [],
      "name": "admin",
      "outputs": [
        {
          "internalType": "address",
          "name": "",
          "type": "address"
        }
      ],
      "stateMutability": "view",
      "type": "function",
      "constant": true
    },
    {
      "inputs": [],
      "name": "candidate_count",
      "outputs": [
        {
          "internalType": "uint256",
          "name": "",
          "type": "uint256"
        }
      ],
      "stateMutability": "view",
      "type": "function",
      "constant": true
    },
    {
      "inputs": [
        {
          "internalType": "address",
          "name": "",
          "type": "address"
        }
      ],
      "name": "voters",
      "outputs": [
        {
          "internalType": "uint256",
          "name": "voter_id",
          "type": "uint256"
        },
        {
          "internalType": "bool",
          "name": "voted",
          "type": "bool"
        }
      ],
      "stateMutability": "view",
      "type": "function",
      "constant": true
    },
    {
      "inputs": [
        {
          "internalType": "address",
          "name": "new_admin",
          "type": "address"
        }
      ],
      "name": "change_admin",
      "outputs": [],
      "stateMutability": "nonpayable",
      "type": "function"
    },
    {
      "inputs": [
        {
          "internalType": "uint256",
          "name": "candidate_id",
          "type": "uint256"
        }
      ],
      "name": "vote",
      "outputs": [],
      "stateMutability": "nonpayable",
      "type": "function"
    },
    {
      "inputs": [
        {
          "internalType": "string",
          "name": "n_name",
          "type": "string"
        },
        {
          "internalType": "string",
          "name": "p_party",
          "type": "string"
        }
      ],
      "name": "insert_candidate",
      "outputs": [],
      "stateMutability": "nonpayable",
      "type": "function"
    },
    {
      "inputs": [
        {
          "internalType": "uint256",
          "name": "c_id",
          "type": "uint256"
        }
      ],
      "name": "remove_candidate",
      "outputs": [],
      "stateMutability": "nonpayable",
      "type": "function"
    },
    {
      "inputs": [
        {
          "internalType": "uint256",
          "name": "c_id",
          "type": "uint256"
        }
      ],
      "name": "initialize_voter",
      "outputs": [],
      "stateMutability": "nonpayable",
      "type": "function"
    },
    {
      "inputs": [
        {
          "internalType": "uint256",
          "name": "c_id",
          "type": "uint256"
        }
      ],
      "name": "get_candidate",
      "outputs": [
        {
          "components": [
            {
              "internalType": "string",
              "name": "name",
              "type": "string"
            },
            {
              "internalType": "string",
              "name": "party",
              "type": "string"
            },
            {
              "internalType": "uint256",
              "name": "vote_count",
              "type": "uint256"
            }
          ],
          "internalType": "struct Voting.Candidate",
          "name": "",
          "type": "tuple"
        }
      ],
      "stateMutability": "view",
      "type": "function",
      "constant": true
    },
    {
      "inputs": [],
      "name": "has_voted",
      "outputs": [
        {
          "internalType": "bool",
          "name": "",
          "type": "bool"
        }
      ],
      "stateMutability": "view",
      "type": "function",
      "constant": true
    },
    {
      "inputs": [],
      "name": "has_vid",
      "outputs": [
        {
          "internalType": "bool",
          "name": "",
          "type": "bool"
        }
      ],
      "stateMutability": "view",
      "type": "function",
      "constant": true
    }
  ],
  "bytecode": "0x608060405234801561001057600080fd5b50336000806101000a81548173ffffffffffffffffffffffffffffffffffffffff021916908373ffffffffffffffffffffffffffffffffffffffff16021790555060006001819055506118f0806100686000396000f3fe608060405234801561001057600080fd5b50600436106100a95760003560e01c806362a44fe91161007157806362a44fe91461013e5780638d78048d1461015c5780638e8913f91461017857806395fc395d14610194578063a3ec138d146101c4578063f851a440146101f5576100a9565b80630121b93f146100ae578063017dcc49146100ca578063158686b5146100e857806348f45703146101045780634b1c4c2914610120575b600080fd5b6100c860048036038101906100c39190610a9e565b610213565b005b6100d26103ce565b6040516100df9190610ae6565b60405180910390f35b61010260048036038101906100fd9190610b5f565b61041a565b005b61011e60048036038101906101199190610cd2565b6104eb565b005b61012861068d565b6040516101359190610d59565b60405180910390f35b610146610693565b6040516101539190610ae6565b60405180910390f35b61017660048036038101906101719190610a9e565b6106ea565b005b610192600480360381019061018d9190610a9e565b610781565b005b6101ae60048036038101906101a99190610a9e565b61083f565b6040516101bb9190610e62565b60405180910390f35b6101de60048036038101906101d99190610b5f565b6109de565b6040516101ec929190610e84565b60405180910390f35b6101fd610a0f565b60405161020a9190610ebc565b60405180910390f35b6000600260003373ffffffffffffffffffffffffffffffffffffffff1673ffffffffffffffffffffffffffffffffffffffff1681526020019081526020016000209050600081600001540361029d576040517f08c379a000000000000000000000000000000000000000000000000000000000815260040161029490610f5a565b60405180910390fd5b8060010160009054906101000a900460ff16156102ef576040517f08c379a00000000000000000000000000000000000000000000000000000000081526004016102e690610fc6565b60405180910390fd5b6001548210610333576040517f08c379a000000000000000000000000000000000000000000000000000000000815260040161032a90611032565b60405180910390fd5b60018160010160006101000a81548160ff02191690831515021790555060036000838152602001908152602001600020600201600081548092919061037790611081565b91905055507f0a7e9456e3ea7078f0983e8892fb05d4e30c3a43391913c3b461a0a16d9fc8ac33600360008581526020019081526020016000206000016040516103c29291906111c2565b60405180910390a15050565b600080600260003373ffffffffffffffffffffffffffffffffffffffff1673ffffffffffffffffffffffffffffffffffffffff1681526020019081526020016000206000015411905090565b60008054906101000a900473ffffffffffffffffffffffffffffffffffffffff1673ffffffffffffffffffffffffffffffffffffffff163373ffffffffffffffffffffffffffffffffffffffff16146104a8576040517f08c379a000000000000000000000000000000000000000000000000000000000815260040161049f9061123e565b60405180910390fd5b806000806101000a81548173ffffffffffffffffffffffffffffffffffffffff021916908373ffffffffffffffffffffffffffffffffffffffff16021790555050565b600082511161052f576040517f08c379a0000000000000000000000000000000000000000000000000000000008152600401610526906112aa565b60405180910390fd5b6000815111610573576040517f08c379a000000000000000000000000000000000000000000000000000000000815260040161056a90611316565b60405180910390fd5b60008054906101000a900473ffffffffffffffffffffffffffffffffffffffff1673ffffffffffffffffffffffffffffffffffffffff163373ffffffffffffffffffffffffffffffffffffffff1614610601576040517f08c379a00000000000000000000000000000000000000000000000000000000081526004016105f890611382565b60405180910390fd5b600060405180606001604052808481526020018381526020016000815250905080600360006001548152602001908152602001600020600082015181600001908161064c9190611539565b5060208201518160010190816106629190611539565b50604082015181600201559050506001600081548092919061068390611081565b9190505550505050565b60015481565b6000600260003373ffffffffffffffffffffffffffffffffffffffff1673ffffffffffffffffffffffffffffffffffffffff16815260200190815260200160002060010160009054906101000a900460ff16905090565b6000600260003373ffffffffffffffffffffffffffffffffffffffff1673ffffffffffffffffffffffffffffffffffffffff16815260200190815260200160002090506000816000015414610774576040517f08c379a000000000000000000000000000000000000000000000000000000000815260040161076b9061167d565b60405180910390fd5b8181600001819055505050565b60015481101561083c5760008190505b6001805461079f919061169d565b81101561082257600360006001836107b791906116d1565b815260200190815260200160002060036000838152602001908152602001600020600082018160000190816107ec919061173d565b5060018201816001019081610801919061173d565b5060028201548160020155905050808061081a90611081565b915050610791565b506001600081548092919061083690611825565b91905055505b50565b610847610a33565b600154821061088b576040517f08c379a00000000000000000000000000000000000000000000000000000000081526004016108829061189a565b60405180910390fd5b600360008381526020019081526020016000206040518060600160405290816000820180546108b9906110f8565b80601f01602080910402602001604051908101604052809291908181526020018280546108e5906110f8565b80156109325780601f1061090757610100808354040283529160200191610932565b820191906000526020600020905b81548152906001019060200180831161091557829003601f168201915b5050505050815260200160018201805461094b906110f8565b80601f0160208091040260200160405190810160405280929190818152602001828054610977906110f8565b80156109c45780601f10610999576101008083540402835291602001916109c4565b820191906000526020600020905b8154815290600101906020018083116109a757829003601f168201915b505050505081526020016002820154815250509050919050565b60026020528060005260406000206000915090508060000154908060010160009054906101000a900460ff16905082565b60008054906101000a900473ffffffffffffffffffffffffffffffffffffffff1681565b60405180606001604052806060815260200160608152602001600081525090565b6000604051905090565b600080fd5b600080fd5b6000819050919050565b610a7b81610a68565b8114610a8657600080fd5b50565b600081359050610a9881610a72565b92915050565b600060208284031215610ab457610ab3610a5e565b5b6000610ac284828501610a89565b91505092915050565b60008115159050919050565b610ae081610acb565b82525050565b6000602082019050610afb6000830184610ad7565b92915050565b600073ffffffffffffffffffffffffffffffffffffffff82169050919050565b6000610b2c82610b01565b9050919050565b610b3c81610b21565b8114610b4757600080fd5b50565b600081359050610b5981610b33565b92915050565b600060208284031215610b7557610b74610a5e565b5b6000610b8384828501610b4a565b91505092915050565b600080fd5b600080fd5b6000601f19601f8301169050919050565b7f4e487b7100000000000000000000000000000000000000000000000000000000600052604160045260246000fd5b610bdf82610b96565b810181811067ffffffffffffffff82111715610bfe57610bfd610ba7565b5b80604052505050565b6000610c11610a54565b9050610c1d8282610bd6565b919050565b600067ffffffffffffffff821115610c3d57610c3c610ba7565b5b610c4682610b96565b9050602081019050919050565b82818337600083830152505050565b6000610c75610c7084610c22565b610c07565b905082815260208101848484011115610c9157610c90610b91565b5b610c9c848285610c53565b509392505050565b600082601f830112610cb957610cb8610b8c565b5b8135610cc9848260208601610c62565b91505092915050565b60008060408385031215610ce957610ce8610a5e565b5b600083013567ffffffffffffffff811115610d0757610d06610a63565b5b610d1385828601610ca4565b925050602083013567ffffffffffffffff811115610d3457610d33610a63565b5b610d4085828601610ca4565b9150509250929050565b610d5381610a68565b82525050565b6000602082019050610d6e6000830184610d4a565b92915050565b600081519050919050565b600082825260208201905092915050565b60005b83811015610dae578082015181840152602081019050610d93565b83811115610dbd576000848401525b50505050565b6000610dce82610d74565b610dd88185610d7f565b9350610de8818560208601610d90565b610df181610b96565b840191505092915050565b610e0581610a68565b82525050565b60006060830160008301518482036000860152610e288282610dc3565b91505060208301518482036020860152610e428282610dc3565b9150506040830151610e576040860182610dfc565b508091505092915050565b60006020820190508181036000830152610e7c8184610e0b565b905092915050565b6000604082019050610e996000830185610d4a565b610ea66020830184610ad7565b9392505050565b610eb681610b21565b82525050565b6000602082019050610ed16000830184610ead565b92915050565b600082825260208201905092915050565b7f557365722073686f756c642066697273742070726f766964652074686569722060008201527f636974697a656e73686970206e756d6265720000000000000000000000000000602082015250565b6000610f44603283610ed7565b9150610f4f82610ee8565b604082019050919050565b60006020820190508181036000830152610f7381610f37565b9050919050565b7f416c726561647920766f74656400000000000000000000000000000000000000600082015250565b6000610fb0600d83610ed7565b9150610fbb82610f7a565b602082019050919050565b60006020820190508181036000830152610fdf81610fa3565b9050919050565b7f43616e64696461746520532e4e2e20646f65736e6f7420657869737473000000600082015250565b600061101c601d83610ed7565b915061102782610fe6565b602082019050919050565b6000602082019050818103600083015261104b8161100f565b9050919050565b7f4e487b7100000000000000000000000000000000000000000000000000000000600052601160045260246000fd5b600061108c82610a68565b91507fffffffffffffffffffffffffffffffffffffffffffffffffffffffffffffffff82036110be576110bd611052565b5b600182019050919050565b7f4e487b7100000000000000000000000000000000000000000000000000000000600052602260045260246000fd5b6000600282049050600182168061111057607f821691505b602082108103611123576111226110c9565b5b50919050565b60008190508160005260206000209050919050565b6000815461114b816110f8565b6111558186610ed7565b945060018216600081146111705760018114611186576111b9565b60ff1983168652811515602002860193506111b9565b61118f85611129565b60005b838110156111b157815481890152600182019150602081019050611192565b808801955050505b50505092915050565b60006040820190506111d76000830185610ead565b81810360208301526111e9818461113e565b90509392505050565b7f4f6e6c79206f6c642061646d696e2063616e206368616e67652061646d696e2e600082015250565b6000611228602083610ed7565b9150611233826111f2565b602082019050919050565b600060208201905081810360008301526112578161121b565b9050919050565b7f496e73657274206e616d652070726f7065726c79000000000000000000000000600082015250565b6000611294601483610ed7565b915061129f8261125e565b602082019050919050565b600060208201905081810360008301526112c381611287565b9050919050565b7f496e736572742070617274792070726f7065726c790000000000000000000000600082015250565b6000611300601583610ed7565b915061130b826112ca565b602082019050919050565b6000602082019050818103600083015261132f816112f3565b9050919050565b7f4f6e6c792061646d696e2063616e206164642063616e64696461746573000000600082015250565b600061136c601d83610ed7565b915061137782611336565b602082019050919050565b6000602082019050818103600083015261139b8161135f565b9050919050565b60006020601f8301049050919050565b600082821b905092915050565b6000600883026113ef7fffffffffffffffffffffffffffffffffffffffffffffffffffffffffffffffff826113b2565b6113f986836113b2565b95508019841693508086168417925050509392505050565b6000819050919050565b600061143661143161142c84610a68565b611411565b610a68565b9050919050565b6000819050919050565b6114508361141b565b61146461145c8261143d565b8484546113bf565b825550505050565b600090565b61147961146c565b611484818484611447565b505050565b5b818110156114a85761149d600082611471565b60018101905061148a565b5050565b601f8211156114ed576114be81611129565b6114c7846113a2565b810160208510156114d6578190505b6114ea6114e2856113a2565b830182611489565b50505b505050565b600082821c905092915050565b6000611510600019846008026114f2565b1980831691505092915050565b600061152983836114ff565b9150826002028217905092915050565b61154282610d74565b67ffffffffffffffff81111561155b5761155a610ba7565b5b61156582546110f8565b6115708282856114ac565b600060209050601f8311600181146115a35760008415611591578287015190505b61159b858261151d565b865550611603565b601f1984166115b186611129565b60005b828110156115d9578489015182556001820191506020850194506020810190506115b4565b868310156115f657848901516115f2601f8916826114ff565b8355505b6001600288020188555050505b505050505050565b7f436974697a656e7368697020696420616c726561647920696e697469616c697a60008201527f6564000000000000000000000000000000000000000000000000000000000000602082015250565b6000611667602283610ed7565b91506116728261160b565b604082019050919050565b600060208201905081810360008301526116968161165a565b9050919050565b60006116a882610a68565b91506116b383610a68565b9250828210156116c6576116c5611052565b5b828203905092915050565b60006116dc82610a68565b91506116e783610a68565b9250827fffffffffffffffffffffffffffffffffffffffffffffffffffffffffffffffff0382111561171c5761171b611052565b5b828201905092915050565b600081549050611736816110f8565b9050919050565b81810361174b575050611823565b61175482611727565b67ffffffffffffffff81111561176d5761176c610ba7565b5b61177782546110f8565b6117828282856114ac565b6000601f8311600181146117b1576000841561179f578287015490505b6117a9858261151d565b86555061181c565b601f1984166117bf87611129565b96506117ca86611129565b60005b828110156117f2578489015482556001820191506001850194506020810190506117cd565b8683101561180f578489015461180b601f8916826114ff565b8355505b6001600288020188555050505b5050505050505b565b600061183082610a68565b91506000820361184357611842611052565b5b600182039050919050565b7f43616e646964617465206e6f7420417661696c61626c65000000000000000000600082015250565b6000611884601783610ed7565b915061188f8261184e565b602082019050919050565b600060208201905081810360008301526118b381611877565b905091905056fea2646970667358221220b012cfaea9b9280fd5c55373ed55c2d67a5ca64109ce28fb32115a58139b6b0064736f6c634300080f0033",
  "immutableReferences": {},
  "source": "pragma solidity >=0.4.22 <0.9.0;\n\ncontract Voting {\n\n    struct Voter{\n        uint256 voter_id;\n        bool voted;\n    }\n\n    struct Candidate {\n        string name;\n        string party;\n        uint256 vote_count;\n    }\n\n    address public admin;\n\n    uint256 public candidate_count;\n    // Candidate[] candidates;\n    event voted(address voted_by, string candidate_name);\n\n    mapping(address => Voter) public voters;\n    mapping(uint256 => Candidate) candidates;\n\n    constructor() {\n        admin = msg.sender;\n        candidate_count = 0;\n    }\n\n    function change_admin(address new_admin) public {\n        require(msg.sender == admin, \"Only old admin can change admin.\");\n        admin = new_admin;\n    }\n\n    function vote(uint256 candidate_id) public {\n        Voter storage vote_sender = voters[msg.sender];\n        require(vote_sender.voter_id != 0, \"User should first provide their citizenship number\");\n        require(!vote_sender.voted, \"Already voted\");\n        require(candidate_id < candidate_count, \"Candidate S.N. doesnot exists\");\n        vote_sender.voted = true;\n        candidates[candidate_id].vote_count++;\n        emit voted(msg.sender, candidates[candidate_id].name);\n    }\n\n    function insert_candidate(string memory n_name, string memory p_party) public {\n        require(bytes(n_name).length > 0, \"Insert name properly\");\n        require(bytes(p_party).length > 0, \"Insert party properly\");\n        require(msg.sender == admin, \"Only admin can add candidates\");\n\n        Candidate memory candidate = Candidate({\n            name: n_name,\n            party: p_party,\n            vote_count: 0\n        });\n\n        candidates[candidate_count] = candidate;\n        candidate_count++;\n    }\n\n    function remove_candidate(uint256 c_id) public {\n        if(c_id < candidate_count) {\n            for (uint256 i = c_id; i < candidate_count - 1; i++) {\n                candidates[i] = candidates[i+1];\n            }\n            candidate_count--;\n        } \n    }\n\n    function initialize_voter(uint256 c_id) public {\n        Voter storage vote_sender = voters[msg.sender];\n        require(vote_sender.voter_id == 0, \"Citizenship id already initialized\");\n        vote_sender.voter_id = c_id;\n    }\n\n    function get_candidate(uint256 c_id) public view returns (Candidate memory) {\n        require(c_id < candidate_count, \"Candidate not Available\");\n        return candidates[c_id];\n    }\n\n    function has_voted() public view returns (bool) {\n        return voters[msg.sender].voted;\n    }\n\n    function has_vid() public view returns (bool) {\n        return voters[msg.sender].voter_id > 0;\n    }\n\n}",
  "sourcePath": "/home/random/prog/nischal_project/back/contracts/Voting.sol",
  "compiler": {
    "name": "solc",
    "version": "0.8.15+commit.e14f2714.Emscripten.clang"
  },
  "schemaVersion": "3.4.8",
  "updatedAt": "2022-08-09T17:52:23.923Z",
  "networkType": "ethereum",
  "devdoc": {
    "kind": "dev",
    "methods": {},
    "version": 1
  },
  "userdoc": {
    "kind": "user",
    "methods": {},
    "version": 1
  }
}